:1000000033C000004CC000004AC0000048C00000DF
:1000100046C0000044C0000042C0000040C00000D4
:100020003EC000005FC200003AC0000038C00000BF
:1000300036C0000034C0000032C0000030C00000F4
:100040002EC000002CC000002AC0000028C0000004
:1000500026C0000024C0000022C0000020C0000014
:100060001EC000001CC0000011241FBECFEFD8E04E
:10007000DEBFCDBF21E0AEE9B1E001C01D92A63ADE
:10008000B207E1F711E0A0E0B1E0E6EBF5E002C075
:1000900005900D92AE39B107D9F7C7D08AC2B0CF5B
:1000A000E0ECF0E0908195FFFDCF8093C6000895CD
:1000B000F7DF80E090E008958A3010F4805D01C0A1
:1000C000895CEECF5C985D9828E030E0882314F4DA
:1000D0005E9A01C05E98880F5D9A5D982150310943
:1000E000A9F75C9A08955B9AEDCF5B98EBCF81E618
:1000F000FCDF83E0F8DF80E2F6DF81E0F4DF80EE12
:10010000F2DF80E1F2CF4F990DC0009759F002C0A5
:10011000019741F0EFECF7E03197F1F700C00000F4
:100120004F9BF6CF0895CF9385E6C0E0B9DFCF5F50
:10013000EC2FF0E0EA5EFE4F80818111F7CF84E082
:10014000D4DF80EF99E4DFDF82E1CFDF80E0CBDF37
:1001500080EF99E4D8DF82E0C8DF80E0C4DF4F9908
:1001600004C01FC0019719F40AC080EF99E4EFECB6
:10017000F7E03197F1F700C000004F99F3CF8FE31C
:100180009CE90197F1F700C0000085E6C0E088DF38
:10019000CF5FEC2FF0E0E65DFE4F80818111F7CF5D
:1001A00007C0EFE3FCE93197F1F700C00000EDCFA5
:1001B000CF910895EF92FF921F93CF93DF93182F63
:1001C00096DF82E6C0E06CDFCF5FEC2FF0E0E45C0E
:1001D000FE4F80818111F7CF20E1129FC0011124D1
:1001E000182B0F2EF0E9EF2EFF24F394F02D08C00A
:1001F000812F79DF2197E1F781E0E81AF10819F002
:10020000C0EED1E0F5CF81E6C0E04ADFCF5FEC2F52
:10021000F0E0E75BFE4F80818111F7CF84DFDF9153
:10022000CF911F91FF90EF900895A8E0B0E0EAE130
:10023000F1E0A5C1E1E6F0E080E880831082259A34
:100240002D9A83E38093C4001092C500E1ECF0E0A6
:100250008081886180832FE788E391E0215080408E
:100260009040E1F700C0000080E091E09093A3018E
:100270008093A2015C9A5D985E985A985798569A16
:10028000529A539A549A559A5F9AEFE1FEE4319745
:10029000F1F700C000005A9A8FE39CE90197F1F74B
:1002A00000C000005A98EFECF7E03197F1F700C07A
:1002B00000005A9A10E085E4F3DE1F5FE12FF0E0C2
:1002C000EB5AFE4F80818111F7CF80E29EE41BDF65
:1002D00010E085E4E5DE1F5FE12FF0E0E559FE4F19
:1002E00080818111F7CF8AEA00DF89E4FCDE85E5B1
:1002F000FADE80E2F8DE88E0F6DE89E0F4DE88E10E
:10030000F2DE81E0F2DE8FE3EEDE80E0ECDE82E31F
:10031000EADE8AE2E8DE8EE0E6DE8AE2E4DE80E023
:10032000E4DE8FE5E0DE89E6DEDE83E0DEDE80E02F
:10033000DADE84E5D8DE80E0D6DE84E4D4DE85E053
:10034000D4DE80E4D0DE8FE1CEDE8FE1CCDE8CE245
:10035000CADE86E0CADE8FE6C6DE8FE1C4DE8FE14C
:10036000C2DE82E2C0DE88E0C0DE8FE6BCDE8FE166
:10037000BADE8FE1B8DE82E2B6DE83E1B6DE80E08F
:10038000B2DE84E0B0DE80E3B0DE8CE3ACDE81E49C
:10039000ACDE80E0A8DE80E5A8DE8FE3A4DE80E6A8
:1003A000A4DE82E0A0DE80E09EDE81E69EDE83E0C9
:1003B0009ADE80E298DE81E096DE80EE94DE82E8CE
:1003C00094DE8EE190DE84E890DE80E08CDE86E8CC
:1003D0008CDE80E088DE83EE88DE8FE284DE80EED5
:1003E00084DE80E080DE86EE80DE80E07CDE10E071
:1003F00085E656DE1F5FE12FF0E0EE57FE4F80816D
:100400008111F7CFD7DEFFEF23ED80E3F1502040DD
:100410008040E1F700C0000081E0CCDE9FEFE3ED1B
:10042000F0E39150E040F040E1F700C0000088E0C8
:10043000EEE0F1E0DE01119601900D928A95E1F770
:1004400056DE812C912CCE0101963C016E0195E087
:10045000C90ED11C1DC0F7018081F0E18F9F900172
:100460001124822B40DE0F5F1F4F0436110599F7D0
:100470002FEFE21AF20ACE14DF0419F000E010E0C8
:10048000EACF8FEF881A980A90EF8916910419F134
:10049000562C472C56017301F1CFF7018481F0E10E
:1004A0008F9F90011124822B1EDE0F5F1F4F043699
:1004B000110599F72FEFE21AF20AAE14BF0419F0F2
:1004C00000E010E0EACF8FEFC81AD80A90EFC91603
:1004D000D10419F405C0C12CD12CE52CF42CF0CF9B
:1004E00022DEFFCF1F920F920FB60F9211240F93AF
:1004F0001F932F933F934F935F936F937F938F93AC
:100500009F93AF93BF93CF93EF93FF9300919E017F
:1005100010919F010F5F1F4F10939F0100939E0149
:1005200083E5C0E0BDDDCF5FEC2FF0E0EC56FE4F81
:1005300080818111F7CF812F82958F70BDDD812F52
:100540008F70BADD802F82958F70B6DD802F8F700F
:10055000B3DDFF91EF91CF91BF91AF919F918F91BB
:100560007F916F915F914F913F912F911F910F91CB
:100570000F900FBE0F901F9018952F923F924F92A1
:100580005F926F927F928F929F92AF92BF92CF9223
:10059000DF92EF92FF920F931F93CF93DF93CDB72C
:1005A000DEB7CA1BDB0B0FB6F894DEBF0FBECDBFA4
:0605B0000994F894FFCF4E
:1005B60000000002000000005800000000000003D8
:1005C60002060405010765706170657220666C7528
:1005D60073682073746172740A0065706170657265
:1005E60020666C75736820656E640A006265666FC6
:1005F600726520646174610A0061667465722064C4
:100606006174610A00457061706572204C6561769F
:10061600696E672052657365740A0045706170657E
:10062600722042757379204869676820446F6E6549
:100636000A00657061706572207365747570206557
:0E0646006E640A005365636F6E64733A0000C1
:00000001FF
