:10000000B3C00000CDC00000CBC00000C9C00000DC
:10001000C7C00000C5C00000C3C00000C1C00000D0
:10002000BFC00000EEC60000BBC00000B9C00000A9
:10003000B7C00000B5C00000B3C00000B1C00000F0
:10004000AFC00000ADC00000ABC00000A9C0000000
:10005000A7C00000A5C00000A3C00000A1C0000010
:100060009FC000009DC000000009121B242D363FD8
:1000700048415A536C657E7719100B023D342F2688
:100080005158434A757C676E323B2029161F040D78
:100090007A7368615E574C452B2239300F061D1468
:1000A000636A7178474E555C646D767F4049525B58
:1000B0002C253E3708011A137D746F6659504B4248
:1000C000353C272E1118030A565F444D727B606938
:1000D0001E170C053A3328214F465D546B62797028
:1000E000070E151C232A31384148535A656C777E18
:1000F00009001B122D243F3658514A437C756E6708
:100100001019020B343D262F737A6168575E454CF7
:100110003B3229201F160D046A6378714E475C55E7
:10012000222B3039060F141D252C373E0108131AD7
:100130006D647F7649405B523C352E2718110A03C7
:10014000747D666F5059424B171E050C333A2128B7
:100150005F564D447B7269600E071C152A233831A7
:10016000464F545D626B707911241FBECFEFD8E00B
:10017000DEBFCDBF23E0AEE7B3E001C01D92A93BD7
:10018000B207E1F713E0A0E0B1E0E0E0FEE102C079
:1001900005900D92AE37B107D9F724D00C94FE0E1E
:1001A0002FCF5C985D9828E030E0882314F45E9AA5
:1001B00001C05E98880F5D9A5D9821503109A9F7BA
:1001C0005C9A08954F990DC0009759F002C00197AD
:1001D00041F0EFECF7E03197F1F700C000004F9BE2
:1001E000F6CF0895A6E3B0E0E8EFF0E00C94250C1C
:1001F000E1E6F0E080E880831082259A2D9A83E37F
:100200008093C4001092C500E1ECF0E08081886129
:1002100080832FE738E381E0215030408040E1F7D0
:1002200000C0000080E091E09093B6038093B50396
:1002300010928C0310928B03C0908903D0908A0394
:100240009FEFC91AD90AD0928A03C092890310E09D
:1002500089E463D61F5FE12FF0E0E35DFE4F80810C
:100260008111F7CFEFE7F8E321E0E150F0402040C3
:10027000E1F700C000005C9A5D985E985A98579824
:10028000569A529A539A549A559A5F9A8FE19EE4DD
:100290000197F1F700C000005A9AEFE3FCE93197AB
:1002A000F1F700C000005A988FEC97E00197F1F742
:1002B00000C000005A9A10E085E42FD61F5FE12F9E
:1002C000F0E0E75CFE4F80818111F7CF80E29EE491
:1002D00079DF10E085E421D61F5FE12FF0E0E15BDC
:1002E000FE4F80818111F7CF8AEA0E94860B89E454
:1002F0000E94830B85E50E94830B80E20E94830BA2
:1003000088E00E94830B89E00E94830B88E10E94B1
:10031000830B81E00E94860B8FE30E94830B80E0B9
:100320000E94830B82E30E94830B8AE20E94830B6C
:100330008EE00E94830B8AE20E94830B80E00E9481
:10034000860B8FE50E94830B89E60E94830B83E076
:100350000E94860B80E00E94830B84E50E94830B41
:1003600080E00E94830B84E40E94830B85E00E945E
:10037000860B80E40E94830B8FE10E94830B8FE148
:100380000E94830B8CE20E94830B86E00E94860B06
:100390008FE60E94830B8FE10E94830B8FE10E9406
:1003A000830B82E20E94830B88E00E94860B8FE61B
:1003B0000E94830B8FE10E94830B8FE10E94830BCD
:1003C00082E20E94830B83E10E94860B80E00E9400
:1003D000830B84E00E94830B80E30E94860B8CE3F6
:1003E0000E94830B81E40E94860B80E00E94830BB5
:1003F00080E50E94860B8FE30E94830B80E60E94BB
:10040000860B82E00E94830B80E00E94830B81E6D2
:100410000E94860B83E00E94830B80E20E94830B84
:1004200081E00E94830B80EE0E94830B82E80E9491
:10043000860B8EE10E94830B84E80E94860B80E08D
:100440000E94830B86E80E94860B80E00E94830B4B
:1004500083EE0E94860B8FE20E94830B80EE0E9447
:10046000860B80E00E94830B86EE0E94860B80E064
:100470000E94830B10E085E650D51F5FE12FF0E06E
:10048000EA59FE4F80818111F7CF10E089E445D50C
:100490001F5FE12FF0E0E858FE4F80818111F7CF18
:1004A00010E03C9A3D9887B1807F87B988B18F6210
:1004B00088B987B18F6287B99FEFE0E7F2E091508A
:1004C000E040F040E1F700C000008AE4449A44981C
:1004D0008150E1F740E050E060E070E080E4A9D5B1
:1004E00088E090E043D54AEA51E060E070E088E4BB
:1004F000A0D58FD5882354F41F5F8FE19EE4019728
:10050000F1F700C000001B3061F608C082E090E007
:100510002DD57FD5F82E91E0891719F010E086E4EB
:1005200061C277D58A3AD1F782E090E01FD540E0EA
:1005300050E060E070E087E77CD580E190E016D580
:1005400040E050E060E370E489E673D562D5B82EF0
:1005500088230CF451C25DD5082F8093820380E07C
:10056000DCD4E12C81E4D9D4E394EE2DF0E0EF5714
:10057000FE4F80818111F7CF8B2DDBD4802FD9D412
:1005800048D5D7D446D5D5D444D5D3D442D5D1D463
:1005900040D5CFD48AE0C1D48AE090E0E7D40023EC
:1005A0008CF0EFE1FEE43197F1F700C000001A3063
:1005B00008F022C28FE19EE40197F1F700C000002D
:1005C0001F5FB5CF06FB002700F90093820340E0D0
:1005D00050E060E070E082E42CD580E09ED410E032
:1005E0008AE09BD41F5FE12FF0E0E657FE4F808149
:1005F0008111F7CF0ED59DD40CD59BD40AD599D4B3
:1006000008D597D406D595D404D593D48AE085D45B
:1006100088E290E0ABD440E050E060E070E083E43A
:1006200008D5F7D4F6D4882EF4D4912CA12CB12C73
:10063000BA2CA92C982C8824882A80927E03909228
:100640007F03A0928003B092810310E08AE365D417
:100650001F5FE12FF0E0EF56FE4F80818111F7CF51
:10066000892D67D4882D65D48AE057D484E190E041
:100670007DD440E050E0B40189E4DBD480E04DD487
:1006800010E08AE04AD41F5FE12FF0E0E956FE4F08
:1006900080818111F7CFBDD44CD4BBD44AD4B9D416
:1006A00048D4B7D446D4B5D444D4B3D442D4B1D4C6
:1006B00040D48AE032D488E290E058D440E050E060
:1006C00060E070E08CE4B5D480E890E04FD440E086
:1006D00050E0B40187E4ADD480E01FD410E083E49F
:1006E0001CD41F5FE12FF0E0E256FE4F80818111A4
:1006F000F7CF8FD41ED48DD41CD48BD41AD489D4E4
:1007000018D487D416D485D414D483D412D48AE0D0
:1007100004D484E190E02AD440E050E0B40187E7BB
:1007200088D480E0FAD310E083E4F7D31F5FE12F91
:10073000F0E0EC55FE4F80818111F7CF6AD4F9D3F8
:1007400068D4F7D366D4F5D364D4F3D362D4F1D3A9
:1007500060D4EFD35ED4EDD384E190E007D442E0DF
:1007600050E060E070E086E464D480E0D6D310E02E
:100770008AE0D3D31F5FE12FF0E0E555FE4F808183
:100780008111F7CF0AE010E080E0C7D342D4D1D383
:1007900001501109C9F78AE0C0D384E690E0E6D39E
:1007A00040E050E0B40187E744D480E290E0DED33B
:1007B00040E050E060E070E083E73BD480E0ADD300
:1007C00010E081E4AAD31F5FE12FF0E0ED54FE4F6B
:1007D00080818111F7CF1DD4ACD31BD4AAD319D4F7
:1007E000A8D317D4A6D38AE098D3F0D300E210E0C0
:1007F000CFD39FD380E291D301501109C9F78AE08A
:1008000090E0B4D38AE089D340E052E060E070E049
:1008100080E50FD480E081D310E083E47ED31F5FB6
:10082000E12FF0E0E554FE4F80818111F7CFF1D345
:1008300080D3EFD37ED3EDD37CD3EBD3182F79D3F2
:100840008AE06BD384E190E091D3193039F0EFE185
:10085000FEE43197F1F700C00000D6CF8AE090E0C7
:1008600085D341EF5FEF6FEF70E886E4E2D380E07D
:1008700054D310E083E451D31F5FE12FF0E0E35540
:10088000FE4F80818111F7CFC4D353D3C2D351D34C
:10089000C0D34FD3BED34DD3BCD34BD3BAD349D39C
:1008A0008AE03BD393D309E410E072D342D380E2D1
:1008B00034D301501109C9F78AE090E057D38AE098
:1008C0002CD3A0907E03B0907F0340E050E0B501B0
:1008D00087E7AFD380E290E049D340E050E060E0AA
:1008E00070E08DE4A6D380E018D310E081E415D346
:1008F0001F5FE12FF0E0ED53FE4F80818111F7CFB4
:1009000088D317D386D315D384D313D382D311D3EB
:100910008AE003D35BD309E410E03AD30AD380E240
:10092000FCD201501109C9F780E092E01FD38AE0A0
:10093000F4D240E050E060E070E08CE47AD38AE0EA
:1009400090E014D380E092E011D340E050E0B50194
:1009500087E76FD310E083E4E0D21F5FE12FF0E080
:10096000EC55FE4F80818111F7CF53D3E2D251D3A2
:10097000E0D24FD3DED24DD3DCD24BD3DAD249D33F
:10098000D8D247D3D6D28AE0C8D284E190E0EED262
:1009900040E050E060E070E08AE64BD310E081E494
:1009A000BCD21F5FE12FF0E0E553FE4F8081811143
:1009B000F7CF2FD3BED22DD3BCD22BD3BAD229D3CB
:1009C000B8D227D3B6D225D3B4D223D3B2D28AE0B9
:1009D000A4D284E190E0CAD28AEF90E0C7D210E0BE
:1009E0008FE416C09AD21F5FE12FF0E0ED52FE4F68
:1009F00080818111F7CFF1C110E086E48ED21F5FB4
:100A0000E12FF0E0ED51FE4F80818111F7CFE5C17C
:100A100084D21F5FE12FF0E0ED50FE4F8081811105
:100A2000F7CF1092910310929203109293031092B9
:100A30009403E3E8F3E01082118212821382A7E8A4
:100A4000B3E01C9211961C92F0939B03E0939A03DF
:100A50000F2EFEE04F2EF1E05F2EF02D60919103FE
:100A6000709192038091930390919403AED3A82E3A
:100A7000882379F010E086E450D21F5FE12FF0E088
:100A8000E350FE4F80818111F7CF6894FF24F2F884
:100A9000DCC08BE090E03BD38CD3982E892E57D3CB
:100AA000E82E87D38C0153D3B82E1F928F931F93B8
:100AB0000F931F92EF928F929F925F924F9209D75E
:100AC00078D38DE090E023D350D34FD36BAB7CAB86
:100AD0008DAB9EAB8AE290E01AD347D33B014C0129
:100AE00044D30FB6F894DEBF0FBECDBF6233704261
:100AF0008042904251F486E4681681E4780684E5E9
:100B0000880683E3980609F455C08091910390917B
:100B10009203A0919303B0919403892B8A2B8B2B82
:100B200069F0BBD210E083E4F8D11F5FE12FF0E061
:100B3000EB5EFD4F80818111F7CF87C08CE691E09D
:100B4000E6D213D36093910370939203809393033F
:100B50009093940310E082E5E0D11F5FE12FF0E075
:100B6000E45CFD4F80818111F7CFE1E9F3E0808102
:100B70009181F4D18AE0D1D190D28091910390916A
:100B80009203A0919303B0919403892B8A2B8B2B12
:100B900009F064CF10E086E4C0D11F5FE12FF0E0E0
:100BA000E45BFD4F80818111F7CF0F2EF3E0FF2E24
:100BB000F02D4BC072D22801612C712C40928D0314
:100BC00050928E0360928F0370929003AFEFAB0D43
:100BD000BB2009F405C18A2F8150F0F7B0E02BA9A2
:100BE0003CA94DA95EA925D689019A01040D151DC0
:100BF000261D371DDC01CB01800F911FA21FB31FE3
:100C000080938D0390938E03A0938F03B0939003F2
:100C1000E092990340929503509296036092970355
:100C20007092980310E086E478D11F5FE12FF0E026
:100C3000EC58FD4F80818111F7CF80918D03909109
:100C40008E038CD18AE069D1FA2C10E087E465D15B
:100C50001F5FE12FF0E0EE57FD4F80818111F7CF4C
:100C60008F2D90E07BD1FF2019F084E0A7D5B4C090
:100C70001FA618AA19AA1AAA8E01015D1F4F960174
:100C800042E050E060E070E0CE010196B7D36B0126
:100C90007C0110E087E441D11F5FE12FF0E0E557D0
:100CA000FD4F80818111F7CFC70158D1C60156D1C0
:100CB00089A99AA953D18FA598A950D18981882350
:100CC00061F010E02AD11F5FE1E0F0E0EC0FFD1FC2
:100CD000E10FF11D80818111F5CF8FA598A9A9A9F8
:100CE000BAA90097A105B10519F481E067D574C0D0
:100CF0008F3F9F4FAF4FBF4F19F482E05FD56CC05D
:100D0000C114D104E104F10409F453C010E083E7F5
:100D100004D11F5FE12FF0E0ED56FD4F808181117E
:100D2000F7CF80E09DE0A2E0B0E08FA798ABA9AB41
:100D3000BAABC9A6DAA6EBA6FCA61DA61EA6CE01D6
:100D4000899679D22FD58FA598A9A9A9BAA9892B57
:100D50008A2B8B2BA1F44FC0C5D2D5D401501109D9
:100D6000D9F722E0D20EE11CF11C8FA598A9A9A900
:100D7000BAA9C816D906EA06FB0620F006C0C12C9F
:100D8000D12C760100E012E0E7CF87D110929B03CF
:100D900010929A0310E082E5C0D01F5FE12FF0E0CF
:100DA000EA55FD4F80818111F7CFB3D410E084E480
:100DB00003C085E003D510C0B0D01F5FE12FF0E085
:100DC000E05AFE4F80818111F7CF5F9A8BB1827814
:100DD0008BB988B1807C88B9FFCF86E0EFD4FCCF97
:100DE000E092990340929503509296036092970384
:100DF0007092980317CF51D110929B0310929A03CF
:100E0000C9CF1F920F920FB60F9211240F931F9309
:100E10002F933F934F935F936F937F938F939F9302
:100E2000AF93BF93CF93EF93FF9300918B031091F8
:100E30008C030F5F1F4F10938C0300938B0383E58C
:100E4000C0E06BD0CF5FEC2FF0E0E354FD4F80812A
:100E50008111F7CFC80182D0FF91EF91CF91BF915F
:100E6000AF919F918F917F916F915F914F913F9142
:100E70002F911F910F910F900FBE0F901F901895FB
:100E800044983D9AE091B003F0E0EE0FFF1FE82791
:100E9000E859FF4FE491E093B00398E04498882329
:100EA00014F4459A01C04598880F449A9150B1F7BF
:100EB0003D980895282F9091AE03492F50E0FA01F4
:100EC000E256FC4F80813091AF03332329F128276C
:100ED000E4EFE90FEF70F0E0E256FC4F308132278B
:100EE0003083EBEFE90FEF70F0E0E256FC4F30811A
:100EF00032273083FA01E256FC4F20839F5F9F70B8
:100F00009093AE0320919C0330919D032F5F3F4F40
:100F100030939D0320939C030895E0ECF0E09081D2
:100F200095FFFDCF8093C6000895F7DF80E090E045
:100F30000895CF93C82F82958F708A3010F4805D0A
:100F400001C0895CEADFCF70CA3018F480E38C0FEF
:100F500002C087E38C0FE1DFCF910895CF93C82FB4
:100F6000892FE7DF8C2FE5DFCF910895AC01892B26
:100F700059F408954498449A9150E1F72F5F3F4FF8
:100F80004217530719F4089520E030E098E0F2CFBB
:100F9000CF93DF9387B1807F87B944980000449A4C
:100FA000C6B1DC2FD295D07F8D2F82958F7082DFD6
:100FB00044980000449AC6B1CF70CD2B8C2F8F700F
:100FC00079DF44988C2FDF91CF91089588B18F609D
:100FD00088B9449887B1807F87B9449A000000009F
:100FE00000000000309B11C080E090E207C0449AEE
:100FF0000000000000000000309B07C04498000083
:10100000000000000000019791F744980000449A06
:1010100008953D9897E080E0359981604498880F65
:10102000449A9150C9F73599816044980000449AD8
:1010300008950F931F93CF93DF93162F072FC42F7D
:10104000D52F1092B0031CDF802F1ADF812F18DFFD
:101050008D2F16DF8C2F14DF8091B003880F8160F5
:101060000FDF44983D98449A000000000000000003
:10107000359B0EC080E090E207C0449A000000005B
:1010800000000000359B04C0449800000197A9F7B8
:10109000DF91CF911F910F9108951F93CF93DF930D
:1010A000C091B103D091B203209741F02197D09322
:1010B000B203C093B1036CDF2097C1F71092AF0366
:1010C000C8E0D0E011E064DFE091AE0391E09E0F54
:1010D0009F70F0E0E256FC4F208140E1249F900198
:1010E0001124E92FF0E0E256FC4F30819F5F9F70A2
:1010F0009093AE03232B8213D12FC15021F78AE0A6
:1011000090E034DF8D2FDF91CF911F9108950F93E1
:101110001F93CF93DF930097A9F0C091B103D091B3
:10112000B203209779F08E01081B190B02C020979B
:1011300049F02197D093B203C093B10329DF0C1774
:101140001D07A9F7DF91CF911F910F91089580910D
:10115000B1039091B203009731F001979093B203DD
:101160008093B10315CF80E00895CF92DF92EF9284
:10117000FF92CF93ECDFC82ED12CE12CF12CE7DFCE
:10118000C82FE5DF90E0A0E0B0E0DC0199278827D8
:101190009C2BC82AD92AEA2AFB2AD9DFA701960163
:1011A000582BCA01B901CF91FF90EF90DF90CF90FB
:1011B0000895CF93DF93CBDFC82FD0E0C8DF9E0127
:1011C000382BC901DF91CF910895CF92DF92EF9232
:1011D000FF926B017C0187B18F6087B984E690E054
:1011E000C5DEB70188279927A60181E522DF85E0C2
:1011F00090E0BCDE87B1807F87B9E8DE449AEEE9F3
:10120000F3E08EEA93E01192E817F907E1F7109204
:10121000AE0310929D0310929C0381E08093AF0374
:1012200080E092E09093B2038093B103FF90EF903F
:10123000DF90CF900895A0E0B0E0E0E2F9E00DC3C8
:101240008C0190939B0380939A03C0909103D0905C
:101250009203E0909303F090940380918D0390911A
:101260008E03A0918F03B0919003C80ED91EEA1E81
:10127000FB1EF80185818695C80ED11CE11CF11C6E
:1012800080819181A281B3819C01AD0122503109FD
:1012900041095109A0919903B0E0CBD26C0D7D1D9D
:1012A0008E1D9F1D92DFF82E882359F087E4C0E041
:1012B00034DECF5FEC2FF0E0EA53FD4F80818111E7
:1012C000F7CFF801F481CF2FF80185818170D82FF5
:1012D000209719F03CDF2197E9F78F2DCDB7DEB7C6
:1012E000E8E0D7C2CF92DF92EF92FF921F93CF93A5
:1012F000DF932DDF182FC0919A03D0919B03209785
:1013000059F08C812D81922F9170019691708C8370
:10131000822F90FB80F98D838091B1039091B2036D
:10132000892B09F062C0B9DE1C829D819E7F892FC6
:1013300086958F5F8F77282F220F9170922B9D8338
:1013400090E02091990330E08217930709F048C09C
:101350008D8181708D8340919503509196036091AA
:101360009703709198038091910390919203A091BB
:101370009303B0919403480F591F6A1F7B1F888104
:101380009981AA81BB81689416F8B695A79597951F
:1013900087951694D1F76A017B01C80ED91EEA1E03
:1013A000FB1EC701B60111DF882361F0C0E087E4AE
:1013B000B4DDCF5FEC2FF0E0E751FD4F808181116C
:1013C000F7CF0EC088819981880F991F880F991FC8
:1013D00091709DDECADE688379838A839B835DDE9C
:1013E00080919A0390919B0326DF812FDF91CF910B
:1013F0001F91FF90EF90DF90CF900895AAE2B0E0A8
:10140000E3E0FAE020C24C01290118A70FA32DB791
:101410003EB73AA729A749835A836B837C831D82F1
:101420001E8286E410E079DD1F5FE12FF0E0ED5DC4
:10143000FC4F80818111F7CFCE010196FCDE552053
:101440006CF48DB79EB788970FB6F8949EBF0FBE09
:101450008DBFEDB7FEB731966F0101C06401A12CBD
:10146000B12C312C7E01F7E2EF0EF11C3201212C60
:1014700083E410E052DD1F5FE12FF0E0E05DFC4F00
:1014800080818111F7CF8E01095F1F4F2BDFF8019B
:1014900081938F014EDD0E151F05C1F78F81853EAB
:1014A00039F3811106C0F9DD6FEF7FEF8FEF9FEF0A
:1014B00020C11A891F3079F58F7181508431C0F6AF
:1014C000FDE08F9F802D1124282F30E0245F3F4FB7
:1014D000283231056CF6F601E80FF11D888580830E
:1014E0008A8581838C8582838E85838388898483A2
:1014F0008D8985838F898683898D87838B8D80876E
:101500008D8D81878F8D82878BA183878DA1848725
:1015100033243394ADCF31104BC0F6018083803239
:1015200009F4D9C0DE011896319681E091E0980F58
:101530002D912193203221F0892F9830B9F7D2C014
:10154000292F30E0F601E20FF31F31974EE240837E
:101550008B3020F59F5FE7E0F0E0EC0FFD1FE80F18
:10156000F11D4081F601E20FF31F4083403289F400
:1015700015C031E0390FE7E0F0E0EC0FFD1FE80F98
:10158000F11D2081F601E90FF11D2083203229F0A1
:10159000932F8F5F8B3068F301C0932FF601E90F13
:1015A000F11D31971082F60180818E3209F460CFEF
:1015B00083E400E0B2DC0F5FE02FF0E0EB5CFC4F77
:1015C00080818111F7CFC301C9DC8AE0A6DCC501A7
:1015D000C5DC8AE0A2DCF6018081882349F000E0C6
:1015E0009CDC0F5FF601E00FF11D80818111F8CFC7
:1015F0008AE093DCF4018081882349F000E08DDCEF
:101600000F5FF401E00FF11D80818111F8CF8AE0B6
:1016100084DCA614B704D9F0FFEF4F165F0609F07B
:1016200053C0D601F4018D919FE9980F9A3108F4C7
:10163000805291912FE9290F2A3108F4905289178D
:101640000CF442C098170CF43FC08111ECCF8AA172
:10165000CB8CD12CE12CF12C7601DD24CC24D82AA2
:1016600089A1C82A8C8DF82A2FA138A5232B31F106
:101670002CA18DA190E0A0E0B0E0DC0199278827A3
:10168000922B2BA1822B2EA1AC01BD01722B14FB3E
:10169000882780F990E0A0E0B0E0B095A095909503
:1016A00081959F4FAF4FBF4F842B952BA62BB72B08
:1016B000EFA1F8A580839183A283B383EEDC6C2D28
:1016C0007D2D8E2D9F2D15C0F6011082FFEFAF1AD4
:1016D000BF0A322CCDCE2EE2F60120838F8181838A
:1016E00092E05CCF2EE2F6012783892F28E030E0DC
:1016F00031CFE9A5FAA50FB6F894FEBF0FBEEDBF36
:10170000AA96E2E1BCC05B9A0C94D1005B980C9461
:10171000D100CF9385E6C0E000DCCF5FEC2FF0E096
:10172000E15CFC4F80818111F7CF84E0EFDF80E640
:101730009AEE0E94E20082E1E9DF80E0E4DF80E6E9
:101740009AEE0E94E20082E0E1DF80E0DCDF4F9968
:1017500004C01FC0019719F40AC080E69AEEEFECAE
:10176000F7E03197F1F700C000004F99F3CF8FE316
:101770009CE90197F1F700C0000085E6C0E0CDDBF1
:10178000CF5FEC2FF0E0ED5AFC4F80818111F7CF55
:1017900007C0EFE3FCE93197F1F700C00000EDCF9F
:1017A000CF91089581E6B2DF83E0ADDF80E2ABDF69
:1017B00081E0A9DF80EEA7DF80E1A8CFEF92FF9262
:1017C0001F93CF93DF93182FEDDFC0E002C0A5DB9E
:1017D000CF5FEC2FF0E0EB59FC4F80818111F7CF08
:1017E00020E1129FC0011124182BC0E9D1E008C0EC
:1017F000812F89DF81E0E81AF108D1F7219751F0B4
:101800000F2EF0EEEF2EFF24F394F02DF1CF85DBB9
:10181000CF5F01C0C0E0EC2FF0E0EE58FC4F8081BC
:101820008111F5CF76DFDF91CF911F91FF90EF907F
:10183000089540D0A59F900DB49F900DA49F800D5A
:10184000911D112408952F923F924F925F926F92B3
:101850007F928F929F92AF92BF92CF92DF92EF9240
:10186000FF920F931F93CF93DF93CDB7DEB7CA1BC1
:10187000DB0B0FB6F894DEBF0FBECDBF09942A88EC
:10188000398848885F846E847D848C849B84AA8494
:10189000B984C884DF80EE80FD800C811B81AA8121
:1018A000B981CE0FD11D0FB6F894DEBF0FBECDBFEC
:1018B000ED010895A29FB001B39FC001A39F700DD9
:1018C000811D1124911DB29F700D811D1124911D48
:1018D0000895A0E0B0E0EEE6FCE0C5CFAE014B5FBE
:1018E0005F4FFA0161917191AF018091B5039091C1
:1018F000B60302D0E2E0D3CFABE0B0E0E1E8FCE039
:10190000A2CF6C017B018A01FC01178216828381C0
:1019100081FFBFC1CE0101963C01F6019381F70121
:1019200093FD859193FF81917F01882309F4ADC1D7
:10193000853239F493FD859193FF81917F01853242
:1019400021F4B60190E0C0D1E8CF912C212C312CAC
:10195000FFE1F315D8F08B3279F038F4803279F06A
:101960008332A1F4232D20611DC08D3261F08033BC
:1019700069F4232D216016C0832D8260382EE32D5B
:10198000E4603E2E2AC0F32DF8601DC037FC2DC048
:1019900020ED280F2A3040F08E32B9F436FC75C1A4
:1019A000232D2064322E19C036FE06C08AE0989E90
:1019B000200D1124922E11C0EAE02E9E200D11243C
:1019C000222EF32DF0623F2E08C08C3621F4832D99
:1019D0008068382E02C0883641F4F70193FD859166
:1019E00093FF81917F018111B3CF982F9F7D9554F3
:1019F000933028F40C5F1F4F9FE399830DC083360B
:101A000031F0833771F0833509F055C020C0F801FB
:101A1000808189830E5F1F4F88248394912C53010A
:101A200012C02801F2E04F0E511CF801A080B180D5
:101A300036FE03C0692D70E002C06FEF7FEFC50175
:101A400038D14C018201F32DFF773F2E15C02801BC
:101A500022E0420E511CF801A080B18036FE03C086
:101A6000692D70E002C06FEF7FEFC50117D14C0107
:101A7000F32DF0683F2E820133FC19C0822D90E0D7
:101A800088169906A0F4B60180E290E01DD12A9450
:101A9000F5CFF50137FC859137FE81915F01B601E5
:101AA00090E012D121102A9421E0821A9108811429
:101AB000910479F7E1C0843611F0893639F5F801DF
:101AC00037FE07C060817181828193810C5F1F4F57
:101AD00008C060817181072E000C880B990B0E5F86
:101AE0001F4FF32DFF763F2E97FF09C090958095ED
:101AF000709561957F4F8F4F9F4FF0683F2E2AE082
:101B000030E0A3011DD1882E861844C0853731F4FA
:101B1000232D2F7EB22E2AE030E025C0932D997F11
:101B2000B92E8F36C1F018F4883579F0AEC0803701
:101B300019F0883721F0A9C0E92FE061BE2EB4FE6C
:101B40000DC0FB2DF460BF2E09C034FE0AC0292F42
:101B50002660B22E06C028E030E005C020E130E06B
:101B600002C020E132E0F801B7FE07C06081718158
:101B7000828193810C5F1F4F06C06081718180E07C
:101B800090E00E5F1F4FA301DBD0882E8618FB2D3F
:101B9000FF773F2E36FE0DC0232D2E7FA22E8914F7
:101BA00058F434FE0BC032FC09C0832D8E7EA82E63
:101BB00005C0B82CA32C03C0B82C01C0B92CA4FEBE
:101BC0000FC0FE01E80DF11D8081803321F49A2DB4
:101BD000997EA92E09C0A2FE06C0B394B39404C096
:101BE0008A2D867809F0B394A3FC10C0A0FE06C02D
:101BF000B21480F4280C922C9B180DC0B21458F427
:101C0000B60180E290E060D0B394F8CFB21418F43B
:101C10002B1802C0982C212CA4FE0FC0B60180E323
:101C200090E052D0A2FE16C0A1FC03C088E790E06D
:101C300002C088E590E0B6010CC08A2D867851F08C
:101C4000A1FE02C08BE201C080E2A7FC8DE2B601DA
:101C500090E03AD0891430F4B60180E390E034D0BB
:101C60009A94F8CF8A94F301E80DF11D8081B601B2
:101C700090E02AD08110F6CF222009F44ECEB60192
:101C800080E290E021D02A94F7CFF60186819781F7
:101C900002C08FEF9FEF2B96E2E1F1CDFC010590A2
:101CA000615070400110D8F7809590958E0F9F1F5E
:101CB0000895FC016150704001900110D8F78095A3
:101CC00090958E0F9F1F08950F931F93CF93DF93CF
:101CD000FB01238121FD03C08FEF9FEF2CC022FF6A
:101CE00016C046815781248135814217530744F439
:101CF000A081B1819D012F5F3F4F318320838C9361
:101D0000268137812F5F3F4F3783268314C08B0195
:101D1000EC01FB010084F185E02D0995892BE1F6AA
:101D2000D80116968D919C911797019617969C93C2
:101D30008E931697CE01DF91CF911F910F91089549
:101D4000FA01AA27283051F1203181F1E8946F93EC
:101D50006E7F6E5F7F4F8F4F9F4FAF4FB1E03ED092
:101D6000B4E03CD0670F781F891F9A1FA11D680F30
:101D7000791F8A1F911DA11D6A0F711D811D911D63
:101D8000A11D20D009F468943F912AE0269F1124D8
:101D90003019305D3193DEF6CF010895462F47703C
:101DA000405D4193B3E00FD0C9F7F6CF462F4F7097
:101DB000405D4A3318F0495D31FD4052419302D0F5
:101DC000A9F7EACFB4E0A69597958795779567959B
:101DD000BA95C9F700976105710508959B01AC019B
:101DE0000A2E06945795479537952795BA95C9F7C2
:101DF000620F731F841F951FA01D0895F894FFCFD5
:101E00000000000200000000950700000000627062
:101E1000733D2575207370633D2575207273633D96
:101E20002575206E666174733D25750A00496E69DB
:101E30007420657061706572004570617065722014
:101E40004C656176696E672052657365740A00455A
:101E500070617065722042757379204869676820E7
:101E6000446F6E650A0065706170657220736574F9
:101E7000757020656E640A00496E69742053440AC7
:101E80000041434D4434313A20000A434D44323A34
:101E9000003A5243413A000A434D44393A00434D17
:101EA00044373A00434D4435353A000A41434D44E6
:101EB000363A0041434D4435313A00434D443136C2
:101EC0003A200041434D4431333A0041434D4434BC
:101ED000323A004661696C6564206F6E20434D4460
:101EE000380A004661696C6564206F6E20434D447A
:101EF000310A004F70656E204641540A0046616900
:101F00006C656420746F20726561642053442063A3
:101F10006172640A00436F756C64206E6F74206692
:101F2000696E642076616C696420464154333220C6
:101F3000656E747279202831292E0A0052652D723F
:101F4000656164696E672061743A20004661696C5E
:101F50007572652E202043616E6E6F742066696E07
:101F60006420666972737420706172746974696F39
:101F70006E2E0A00466F756E64736563746F723AF5
:101F80002000476F74204641543A00476F74204642
:101F90004E3A00737461727420646973706C617975
:101FA0002066696C6500526561642066696C652015
:101FB000636F6D706C6574656C792E0A0053656390
:101FC0006F6E64733A0047656E6572616C2066617E
:101FD000756C74207374617274696E6720636172CA
:101FE0006420726561642E0A0047656E6572616CDB
:101FF000206661756C74207374617274696E6720F9
:1020000063617264207265616420666F722073651B
:1020100063746F7220616476616E63656D656E7462
:102020002E0A0046494E44494E472046494C450039
:1020300043453A2000434845434B494E470A006513
:10204000706170657220666C75736820737461725C
:10205000740A0065706170657220666C7573682023
:10206000656E640A006265666F7265206461746102
:0E2070000A00616674657220646174610A0082
:00000001FF
