:1000000033C000004CC000004AC0000048C00000DF
:1000100046C0000044C0000042C0000040C00000D4
:100020003EC0000050C100003AC0000038C00000CF
:1000300036C0000034C0000032C0000030C00000F4
:100040002EC000002CC000002AC0000028C0000004
:1000500026C0000024C0000022C0000020C0000014
:100060001EC000001CC0000011241FBECFEFD8E04E
:10007000DEBFCDBF21E0A4E4B1E001C01D92AC34ED
:10008000B207E1F711E0A0E0B1E0E0E6F3E002C082
:1000900005900D92A434B107D9F739D05FC1B0CF24
:1000A000E0ECF0E0908195FFFDCF8093C6000895CD
:1000B000F7DF80E090E008958A3010F4805D01C0A1
:1000C000895CEECF5C985D9828E030E0882314F4DA
:1000D0005E9A01C05E98880F5D9A5D982150310943
:1000E000A9F75C9A08955B9AEDCF5B98EBCF4F9997
:1000F0000DC0009759F002C0019741F0EFECF7E016
:100100003197F1F700C000004F9BF6CF0895E1E66C
:10011000F0E080E880831082259A2D9A83E3809313
:10012000C4001092C500E1ECF0E08081886180831A
:100130002FE788E391E0215080409040E1F700C034
:10014000000080E091E090934901809348015C9A1F
:100150005D985E985A985798569A529A539A549A1C
:10016000559A5F9AEFE1FEE43197F1F700C0000085
:100170005A9A8FE19EE40197F1F700C00000C0E0B9
:1001800085E48EDFCF5FEC2FF0E0E25FFE4F8081F1
:100190008111F7CF84E190E0AADFC0E085E480DF41
:1001A000CF5FEC2FF0E0EC5DFE4F80818111F7CF47
:1001B0009CDF8FEE98DF88E096DF81E096DF87E3B3
:1001C00092DF80E090DF83E28EDF83E28CDF83E0EA
:1001D0008CDF80E088DF86E088DF87EC84DF87ECD7
:1001E00082DF8DE180DF80E380DF8CE37CDF80E4F1
:1001F0007CDF80E078DF80E578DF87E374DF80E60E
:1002000074DF82E270DF81E670DF82E06CDF88E518
:100210006ADF81E068DF80EC66DF83EE66DF8AEA12
:1002200062DF9FE7E8E3F1E09150E040F040E1F762
:1002300000C0000080E559DF87E355DF2FE788E342
:1002400091E0215080409040E1F700C0000081E63D
:100250004CDF82E048DF88E546DF81E044DF80EC68
:1002600042DF80E142DF0CE211E007C081E13BDFC9
:100270002197E1F70150110919F0C0ECD1E0F6CF58
:1002800084E033DF86E990E032DF82E12EDF88E927
:100290009AE32DDF82E029DF4F9904C00DC001975A
:1002A00019F40AC086E990E0EFECF7E03197F1F736
:1002B00000C000004F99F3CF8FE39CE90197F1F75D
:1002C00000C00000FFCF1F920F920FB60F921124B3
:1002D0000F931F932F933F934F935F936F937F934E
:1002E0008F939F93AF93BF93CF93EF93FF9300911F
:1002F0004401109145010F5F1F4F1093450100937A
:10030000440183E5C0E0CCDECF5FEC2FF0E0E55C9C
:10031000FE4F80818111F7CF812F82958F70CCDEC7
:10032000812F8F70C9DE802F82958F70C5DE802F60
:100330008F70C2DEFF91EF91CF91BF91AF919F91EE
:100340008F917F916F915F914F913F912F911F916D
:100350000F910F900FBE0F901F901895F894FFCF3C
:10036000000000020000000058000000000045707E
:1003700061706572204C656176696E6720526573A5
:1003800065740A004570617065722042757379204A
:100390004869676820446F6E650A005365636F6E35
:0403A00064733A0048
:00000001FF
